{
  "abi": [
    {
      "anonymous": false,
      "inputs": [
        {
          "indexed": false,
          "internalType": "address",
          "name": "previousAdmin",
          "type": "address"
        },
        {
          "indexed": false,
          "internalType": "address",
          "name": "newAdmin",
          "type": "address"
        }
      ],
      "name": "AdminChanged",
      "type": "event"
    },
    {
      "anonymous": false,
      "inputs": [
        {
          "indexed": true,
          "internalType": "address",
          "name": "owner",
          "type": "address"
        },
        {
          "indexed": true,
          "internalType": "address",
          "name": "approved",
          "type": "address"
        },
        {
          "indexed": true,
          "internalType": "uint256",
          "name": "tokenId",
          "type": "uint256"
        }
      ],
      "name": "Approval",
      "type": "event"
    },
    {
      "anonymous": false,
      "inputs": [
        {
          "indexed": true,
          "internalType": "address",
          "name": "owner",
          "type": "address"
        },
        {
          "indexed": true,
          "internalType": "address",
          "name": "operator",
          "type": "address"
        },
        {
          "indexed": false,
          "internalType": "bool",
          "name": "approved",
          "type": "bool"
        }
      ],
      "name": "ApprovalForAll",
      "type": "event"
    },
    {
      "anonymous": false,
      "inputs": [
        {
          "indexed": true,
          "internalType": "address",
          "name": "beacon",
          "type": "address"
        }
      ],
      "name": "BeaconUpgraded",
      "type": "event"
    },
    {
      "anonymous": false,
      "inputs": [
        {
          "indexed": false,
          "internalType": "uint8",
          "name": "version",
          "type": "uint8"
        }
      ],
      "name": "Initialized",
      "type": "event"
    },
    {
      "anonymous": false,
      "inputs": [
        {
          "indexed": true,
          "internalType": "address",
          "name": "previousOwner",
          "type": "address"
        },
        {
          "indexed": true,
          "internalType": "address",
          "name": "newOwner",
          "type": "address"
        }
      ],
      "name": "OwnershipTransferred",
      "type": "event"
    },
    {
      "anonymous": false,
      "inputs": [
        {
          "indexed": true,
          "internalType": "address",
          "name": "from",
          "type": "address"
        },
        {
          "indexed": true,
          "internalType": "address",
          "name": "to",
          "type": "address"
        },
        {
          "indexed": true,
          "internalType": "uint256",
          "name": "tokenId",
          "type": "uint256"
        }
      ],
      "name": "Transfer",
      "type": "event"
    },
    {
      "anonymous": false,
      "inputs": [
        {
          "indexed": true,
          "internalType": "address",
          "name": "implementation",
          "type": "address"
        }
      ],
      "name": "Upgraded",
      "type": "event"
    },
    {
      "anonymous": false,
      "inputs": [
        {
          "indexed": true,
          "internalType": "address",
          "name": "_from",
          "type": "address"
        },
        {
          "indexed": true,
          "internalType": "address",
          "name": "_to",
          "type": "address"
        },
        {
          "indexed": true,
          "internalType": "uint256[]",
          "name": "tokenIDs",
          "type": "uint256[]"
        }
      ],
      "name": "batchTransfer",
      "type": "event"
    },
    {
      "inputs": [
        {
          "internalType": "address",
          "name": "to",
          "type": "address"
        },
        {
          "internalType": "uint256",
          "name": "tokenId",
          "type": "uint256"
        }
      ],
      "name": "approve",
      "outputs": [],
      "stateMutability": "nonpayable",
      "type": "function"
    },
    {
      "inputs": [
        {
          "internalType": "address",
          "name": "owner",
          "type": "address"
        }
      ],
      "name": "balanceOf",
      "outputs": [
        {
          "internalType": "uint256",
          "name": "",
          "type": "uint256"
        }
      ],
      "stateMutability": "view",
      "type": "function"
    },
    {
      "inputs": [],
      "name": "baseURI",
      "outputs": [
        {
          "internalType": "string",
          "name": "",
          "type": "string"
        }
      ],
      "stateMutability": "view",
      "type": "function"
    },
    {
      "inputs": [
        {
          "internalType": "uint256",
          "name": "tokenId",
          "type": "uint256"
        }
      ],
      "name": "burn",
      "outputs": [],
      "stateMutability": "nonpayable",
      "type": "function"
    },
    {
      "inputs": [
        {
          "internalType": "uint256[]",
          "name": "_tokenID",
          "type": "uint256[]"
        },
        {
          "internalType": "bytes32[]",
          "name": "_merkleProof",
          "type": "bytes32[]"
        }
      ],
      "name": "checkValidity",
      "outputs": [
        {
          "internalType": "bool",
          "name": "",
          "type": "bool"
        }
      ],
      "stateMutability": "view",
      "type": "function"
    },
    {
      "inputs": [
        {
          "internalType": "uint256",
          "name": "tokenId",
          "type": "uint256"
        }
      ],
      "name": "exists",
      "outputs": [
        {
          "internalType": "bool",
          "name": "",
          "type": "bool"
        }
      ],
      "stateMutability": "view",
      "type": "function"
    },
    {
      "inputs": [
        {
          "internalType": "uint256",
          "name": "tokenId",
          "type": "uint256"
        }
      ],
      "name": "getApproved",
      "outputs": [
        {
          "internalType": "address",
          "name": "",
          "type": "address"
        }
      ],
      "stateMutability": "view",
      "type": "function"
    },
    {
      "inputs": [],
      "name": "initialize",
      "outputs": [],
      "stateMutability": "nonpayable",
      "type": "function"
    },
    {
      "inputs": [
        {
          "internalType": "address",
          "name": "owner",
          "type": "address"
        },
        {
          "internalType": "address",
          "name": "operator",
          "type": "address"
        }
      ],
      "name": "isApprovedForAll",
      "outputs": [
        {
          "internalType": "bool",
          "name": "",
          "type": "bool"
        }
      ],
      "stateMutability": "view",
      "type": "function"
    },
    {
      "inputs": [
        {
          "internalType": "uint256[]",
          "name": "TokenID",
          "type": "uint256[]"
        },
        {
          "internalType": "bytes32[]",
          "name": "merkleProof",
          "type": "bytes32[]"
        }
      ],
      "name": "mintAllBeaNFT",
      "outputs": [],
      "stateMutability": "nonpayable",
      "type": "function"
    },
    {
      "inputs": [],
      "name": "name",
      "outputs": [
        {
          "internalType": "string",
          "name": "",
          "type": "string"
        }
      ],
      "stateMutability": "view",
      "type": "function"
    },
    {
      "inputs": [],
      "name": "owner",
      "outputs": [
        {
          "internalType": "address",
          "name": "",
          "type": "address"
        }
      ],
      "stateMutability": "view",
      "type": "function"
    },
    {
      "inputs": [
        {
          "internalType": "uint256",
          "name": "tokenId",
          "type": "uint256"
        }
      ],
      "name": "ownerOf",
      "outputs": [
        {
          "internalType": "address",
          "name": "",
          "type": "address"
        }
      ],
      "stateMutability": "view",
      "type": "function"
    },
    {
      "inputs": [],
      "name": "proxiableUUID",
      "outputs": [
        {
          "internalType": "bytes32",
          "name": "",
          "type": "bytes32"
        }
      ],
      "stateMutability": "view",
      "type": "function"
    },
    {
      "inputs": [],
      "name": "renounceOwnership",
      "outputs": [],
      "stateMutability": "nonpayable",
      "type": "function"
    },
    {
      "inputs": [
        {
          "internalType": "address",
          "name": "from",
          "type": "address"
        },
        {
          "internalType": "address",
          "name": "to",
          "type": "address"
        },
        {
          "internalType": "uint256",
          "name": "tokenId",
          "type": "uint256"
        }
      ],
      "name": "safeTransferFrom",
      "outputs": [],
      "stateMutability": "nonpayable",
      "type": "function"
    },
    {
      "inputs": [
        {
          "internalType": "address",
          "name": "from",
          "type": "address"
        },
        {
          "internalType": "address",
          "name": "to",
          "type": "address"
        },
        {
          "internalType": "uint256",
          "name": "tokenId",
          "type": "uint256"
        },
        {
          "internalType": "bytes",
          "name": "data",
          "type": "bytes"
        }
      ],
      "name": "safeTransferFrom",
      "outputs": [],
      "stateMutability": "nonpayable",
      "type": "function"
    },
    {
      "inputs": [
        {
          "internalType": "address",
          "name": "operator",
          "type": "address"
        },
        {
          "internalType": "bool",
          "name": "approved",
          "type": "bool"
        }
      ],
      "name": "setApprovalForAll",
      "outputs": [],
      "stateMutability": "nonpayable",
      "type": "function"
    },
    {
      "inputs": [
        {
          "internalType": "string",
          "name": "newBaseTokenURI",
          "type": "string"
        }
      ],
      "name": "setBaseURI",
      "outputs": [],
      "stateMutability": "nonpayable",
      "type": "function"
    },
    {
      "inputs": [
        {
          "internalType": "bytes4",
          "name": "interfaceId",
          "type": "bytes4"
        }
      ],
      "name": "supportsInterface",
      "outputs": [
        {
          "internalType": "bool",
          "name": "",
          "type": "bool"
        }
      ],
      "stateMutability": "view",
      "type": "function"
    },
    {
      "inputs": [],
      "name": "symbol",
      "outputs": [
        {
          "internalType": "string",
          "name": "",
          "type": "string"
        }
      ],
      "stateMutability": "view",
      "type": "function"
    },
    {
      "inputs": [
        {
          "internalType": "uint256",
          "name": "index",
          "type": "uint256"
        }
      ],
      "name": "tokenByIndex",
      "outputs": [
        {
          "internalType": "uint256",
          "name": "",
          "type": "uint256"
        }
      ],
      "stateMutability": "view",
      "type": "function"
    },
    {
      "inputs": [
        {
          "internalType": "address",
          "name": "owner",
          "type": "address"
        },
        {
          "internalType": "uint256",
          "name": "index",
          "type": "uint256"
        }
      ],
      "name": "tokenOfOwnerByIndex",
      "outputs": [
        {
          "internalType": "uint256",
          "name": "tokenId",
          "type": "uint256"
        }
      ],
      "stateMutability": "view",
      "type": "function"
    },
    {
      "inputs": [
        {
          "internalType": "uint256",
          "name": "tokenId",
          "type": "uint256"
        }
      ],
      "name": "tokenURI",
      "outputs": [
        {
          "internalType": "string",
          "name": "",
          "type": "string"
        }
      ],
      "stateMutability": "view",
      "type": "function"
    },
    {
      "inputs": [],
      "name": "totalSupply",
      "outputs": [
        {
          "internalType": "uint256",
          "name": "",
          "type": "uint256"
        }
      ],
      "stateMutability": "view",
      "type": "function"
    },
    {
      "inputs": [
        {
          "internalType": "address",
          "name": "from",
          "type": "address"
        },
        {
          "internalType": "address",
          "name": "to",
          "type": "address"
        },
        {
          "internalType": "uint256",
          "name": "tokenId",
          "type": "uint256"
        }
      ],
      "name": "transferFrom",
      "outputs": [],
      "stateMutability": "nonpayable",
      "type": "function"
    },
    {
      "inputs": [
        {
          "internalType": "address",
          "name": "newOwner",
          "type": "address"
        }
      ],
      "name": "transferOwnership",
      "outputs": [],
      "stateMutability": "nonpayable",
      "type": "function"
    },
    {
      "inputs": [
        {
          "internalType": "address",
          "name": "newImplementation",
          "type": "address"
        }
      ],
      "name": "upgradeTo",
      "outputs": [],
      "stateMutability": "nonpayable",
      "type": "function"
    },
    {
      "inputs": [
        {
          "internalType": "address",
          "name": "newImplementation",
          "type": "address"
        },
        {
          "internalType": "bytes",
          "name": "data",
          "type": "bytes"
        }
      ],
      "name": "upgradeToAndCall",
      "outputs": [],
      "stateMutability": "payable",
      "type": "function"
    }
  ],
  "bytecode": {
    "object": "0x60a06040523060805234801561001457600080fd5b50608051612ab661004c6000396000818161094c0152818161098c01528181610a7501528181610ab50152610bbf0152612ab66000f3fe6080604052600436106101c25760003560e01c806352d1902d116100f75780638da5cb5b11610095578063ba70153c11610064578063ba70153c146104d2578063c87b56dd146104f2578063e985e9c514610512578063f2fde38b1461055c57600080fd5b80638da5cb5b1461045e57806395d89b411461047d578063a22cb46514610492578063b88d4fde146104b257600080fd5b80636c0360eb116100d15780636c0360eb146103ff57806370a0823114610414578063715018a6146104345780638129fc1c1461044957600080fd5b806352d1902d146103aa57806355f804b3146103bf5780636352211e146103df57600080fd5b80632f745c591161016457806342966c681161013e57806342966c68146103375780634f1ef286146103575780634f558e791461036a5780634f6ccce71461038a57600080fd5b80632f745c59146102d75780633659cfe6146102f757806342842e0e1461031757600080fd5b8063081812fc116101a0578063081812fc14610240578063095ea7b31461027857806318160ddd1461029857806323b872dd146102b757600080fd5b806301ffc9a7146101c757806306fdde03146101fc578063073b0d361461021e575b600080fd5b3480156101d357600080fd5b506101e76101e236600461222f565b61057c565b60405190151581526020015b60405180910390f35b34801561020857600080fd5b506102116105a7565b6040516101f391906122a4565b34801561022a57600080fd5b5061023e610239366004612303565b610639565b005b34801561024c57600080fd5b5061026061025b36600461236f565b610688565b6040516001600160a01b0390911681526020016101f3565b34801561028457600080fd5b5061023e6102933660046123a4565b6106d5565b3480156102a457600080fd5b506103965b6040519081526020016101f3565b3480156102c357600080fd5b5061023e6102d23660046123ce565b6107eb565b3480156102e357600080fd5b506102a96102f23660046123a4565b61081d565b34801561030357600080fd5b5061023e61031236600461240a565b610941565b34801561032357600080fd5b5061023e6103323660046123ce565b610a21565b34801561034357600080fd5b5061023e61035236600461236f565b610a3c565b61023e6103653660046124c8565b610a6a565b34801561037657600080fd5b506101e761038536600461236f565b610b3b565b34801561039657600080fd5b506102a96103a536600461236f565b610b46565b3480156103b657600080fd5b506102a9610bb2565b3480156103cb57600080fd5b5061023e6103da366004612516565b610c65565b3480156103eb57600080fd5b506102606103fa36600461236f565b610c7a565b34801561040b57600080fd5b50610211610ceb565b34801561042057600080fd5b506102a961042f36600461240a565b610cfa565b34801561044057600080fd5b5061023e610db1565b34801561045557600080fd5b5061023e610dc5565b34801561046a57600080fd5b50610459546001600160a01b0316610260565b34801561048957600080fd5b50610211610f52565b34801561049e57600080fd5b5061023e6104ad366004612588565b610f61565b3480156104be57600080fd5b5061023e6104cd3660046125c4565b610f6b565b3480156104de57600080fd5b506101e76104ed366004612303565b610f9d565b3480156104fe57600080fd5b5061021161050d36600461236f565b61105b565b34801561051e57600080fd5b506101e761052d36600461262c565b6001600160a01b0391821660009081526103fe6020908152604080832093909416825291909152205460ff1690565b34801561056857600080fd5b5061023e61057736600461240a565b6110de565b60006001600160e01b0319821663780e9d6360e01b14806105a157506105a182611154565b92915050565b6060606580546105b69061265f565b80601f01602080910402602001604051908101604052809291908181526020018280546105e29061265f565b801561062f5780601f106106045761010080835404028352916020019161062f565b820191906000526020600020905b81548152906001019060200180831161061257829003601f168201915b5050505050905090565b61064584848484610f9d565b5060018314156106775761067233858560008181106106665761066661269a565b905060200201356111a4565b610682565b6106823385856111be565b50505050565b600061069382611353565b6106b85760405162461bcd60e51b81526004016106af906126b0565b60405180910390fd5b5060009081526103fd60205260409020546001600160a01b031690565b60006106e082610c7a565b9050806001600160a01b0316836001600160a01b0316141561074e5760405162461bcd60e51b815260206004820152602160248201527f4552433732313a20617070726f76616c20746f2063757272656e74206f776e656044820152603960f91b60648201526084016106af565b336001600160a01b038216148061076a575061076a813361052d565b6107dc5760405162461bcd60e51b815260206004820152603e60248201527f4552433732313a20617070726f76652063616c6c6572206973206e6f7420746f60448201527f6b656e206f776e6572206e6f7220617070726f76656420666f7220616c6c000060648201526084016106af565b6107e6838361138a565b505050565b6107f6335b826113f9565b6108125760405162461bcd60e51b81526004016106af906126fc565b6107e68383836114e3565b600061082883610cfa565b821061088a5760405162461bcd60e51b815260206004820152602b60248201527f455243373231456e756d657261626c653a206f776e657220696e646578206f7560448201526a74206f6620626f756e647360a81b60648201526084016106af565b6000805b6103968110156108e15760678161039681106108ac576108ac61269a565b01546001600160a01b03868116911614156108d957838214156108d25791506105a19050565b8160010191505b60010161088e565b5060405162461bcd60e51b815260206004820152602e60248201527f455243373231456e756d657261626c654f7074696d697a65643a20696e64657860448201526d206f7574206f6620626f756e647360901b60648201526084016106af565b306001600160a01b037f000000000000000000000000000000000000000000000000000000000000000016141561098a5760405162461bcd60e51b81526004016106af9061274a565b7f00000000000000000000000000000000000000000000000000000000000000006001600160a01b03166109d3600080516020612a3a833981519152546001600160a01b031690565b6001600160a01b0316146109f95760405162461bcd60e51b81526004016106af90612796565b610a028161162f565b60408051600080825260208201909252610a1e91839190611637565b50565b6107e683838360405180602001604052806000815250610f6b565b610a45336107f0565b610a615760405162461bcd60e51b81526004016106af906126fc565b610a1e816117a2565b306001600160a01b037f0000000000000000000000000000000000000000000000000000000000000000161415610ab35760405162461bcd60e51b81526004016106af9061274a565b7f00000000000000000000000000000000000000000000000000000000000000006001600160a01b0316610afc600080516020612a3a833981519152546001600160a01b031690565b6001600160a01b031614610b225760405162461bcd60e51b81526004016106af90612796565b610b2b8261162f565b610b3782826001611637565b5050565b60006105a182611353565b60006103968210610bae5760405162461bcd60e51b815260206004820152602c60248201527f455243373231456e756d657261626c653a20676c6f62616c20696e646578206f60448201526b7574206f6620626f756e647360a01b60648201526084016106af565b5090565b6000306001600160a01b037f00000000000000000000000000000000000000000000000000000000000000001614610c525760405162461bcd60e51b815260206004820152603860248201527f555550535570677261646561626c653a206d757374206e6f742062652063616c60448201527f6c6564207468726f7567682064656c656761746563616c6c000000000000000060648201526084016106af565b50600080516020612a3a83398151915290565b610c6d611820565b6107e661048b8383612110565b6000806067836103968110610c9157610c9161269a565b01546001600160a01b03169050806105a15760405162461bcd60e51b815260206004820152601860248201527f4552433732313a20696e76616c696420746f6b656e204944000000000000000060448201526064016106af565b6060610cf561187b565b905090565b60006001600160a01b038216610d645760405162461bcd60e51b815260206004820152602960248201527f4552433732313a2061646472657373207a65726f206973206e6f7420612076616044820152683634b21037bbb732b960b91b60648201526084016106af565b6000805b610396811015610daa576067816103968110610d8657610d8661269a565b01546001600160a01b0385811691161415610da2578160010191505b600101610d68565b5092915050565b610db9611820565b610dc3600061188b565b565b600054610100900460ff1615808015610de55750600054600160ff909116105b80610dff5750303b158015610dff575060005460ff166001145b610e625760405162461bcd60e51b815260206004820152602e60248201527f496e697469616c697a61626c653a20636f6e747261637420697320616c72656160448201526d191e481a5b9a5d1a585b1a5e995960921b60648201526084016106af565b6000805460ff191660011790558015610e85576000805461ff0019166101001790555b610ed16040518060400160405280600e81526020016d14995c1b185b9d0810995853919560921b815250604051806040016040528060048152602001631093919560e21b8152506118de565b610ed961190f565b610ee1611936565b610f0a7f473f5af92c6c71bb5ed01d4dae89d73d0503180786926bba1462b0a61d5a4b33611965565b8015610a1e576000805461ff0019169055604051600181527f7f26b83ff96e1f2b6a682f133852f6798a09c465da95921460cefb38474024989060200160405180910390a150565b6060606680546105b69061265f565b610b378282611992565b610f7533836113f9565b610f915760405162461bcd60e51b81526004016106af906126fc565b61068284848484611a58565b600080338686604051602001610fb59392919061280f565b60405160208183030381529060405280519060200120905061100f8484808060200260200160405190810160405280939291908181526020018383602002808284376000920191909152505061048c549150849050611a8b565b61104d5760405162461bcd60e51b815260206004820152600f60248201526e24b731b7b93932b1ba10383937b7b360891b60448201526064016106af565b60019150505b949350505050565b606061106682611353565b6110825760405162461bcd60e51b81526004016106af906126b0565b600061108c61187b565b905060008151116110ac57604051806020016040528060008152506110d7565b806110b684611aa1565b6040516020016110c792919061283d565b6040516020818303038152906040525b9392505050565b6110e6611820565b6001600160a01b03811661114b5760405162461bcd60e51b815260206004820152602660248201527f4f776e61626c653a206e6577206f776e657220697320746865207a65726f206160448201526564647265737360d01b60648201526084016106af565b610a1e8161188b565b60006001600160e01b031982166380ac58cd60e01b148061118557506001600160e01b03198216635b5e139f60e01b145b806105a157506301ffc9a760e01b6001600160e01b03198316146105a1565b610b37828260405180602001604052806000815250611b9f565b6001600160a01b0383166112145760405162461bcd60e51b815260206004820181905260248201527f4552433732313a206d696e7420746f20746865207a65726f206164647265737360448201526064016106af565b60005b81811015611300576112408383838181106112345761123461269a565b90506020020135611353565b1561128d5760405162461bcd60e51b815260206004820152601c60248201527f4552433732313a20746f6b656e20616c7265616479206d696e7465640000000060448201526064016106af565b6112ac6000858585858181106112a5576112a561269a565b5050505050565b8360678484848181106112c1576112c161269a565b9050602002013561039681106112d9576112d961269a565b0180546001600160a01b0319166001600160a01b0392909216919091179055600101611217565b50818160405161131192919061286c565b604051908190038120906001600160a01b038516906000907f3593cebc8544d520ef6336197642ed70002359ed9609e9b6d698849c2bc5a412908290a4505050565b6000610396821080156105a15750600060678361039681106113775761137761269a565b01546001600160a01b0316141592915050565b60008181526103fd6020526040902080546001600160a01b0319166001600160a01b03841690811790915581906113c082610c7a565b6001600160a01b03167f8c5be1e5ebec7d5bd14f71427d1e84f3dd0314c0f7b2291e5b200ac8c7c3b92560405160405180910390a45050565b600061140482611353565b6114655760405162461bcd60e51b815260206004820152602c60248201527f4552433732313a206f70657261746f7220717565727920666f72206e6f6e657860448201526b34b9ba32b73a103a37b5b2b760a11b60648201526084016106af565b600061147083610c7a565b9050806001600160a01b0316846001600160a01b031614806114b857506001600160a01b0380821660009081526103fe602090815260408083209388168352929052205460ff165b806110535750836001600160a01b03166114d184610688565b6001600160a01b031614949350505050565b826001600160a01b03166114f682610c7a565b6001600160a01b03161461155a5760405162461bcd60e51b815260206004820152602560248201527f4552433732313a207472616e736665722066726f6d20696e636f72726563742060448201526437bbb732b960d91b60648201526084016106af565b6001600160a01b0382166115bc5760405162461bcd60e51b8152602060048201526024808201527f4552433732313a207472616e7366657220746f20746865207a65726f206164646044820152637265737360e01b60648201526084016106af565b6115c760008261138a565b8160678261039681106115dc576115dc61269a565b0180546001600160a01b0319166001600160a01b03928316179055604051829184811691908616907fddf252ad1be2c89b69c2b068fc378daa952ba7f163c4a11628f55a4df523b3ef90600090a4505050565b610a1e611820565b7f4910fdfa16fed3260ed0e7147f7cc6da11a60208b5b9406d12a635614ffd91435460ff161561166a576107e683611bd2565b826001600160a01b03166352d1902d6040518163ffffffff1660e01b8152600401602060405180830381865afa9250505080156116c4575060408051601f3d908101601f191682019092526116c191810190612879565b60015b6117275760405162461bcd60e51b815260206004820152602e60248201527f45524331393637557067726164653a206e657720696d706c656d656e7461746960448201526d6f6e206973206e6f74205555505360901b60648201526084016106af565b600080516020612a3a83398151915281146117965760405162461bcd60e51b815260206004820152602960248201527f45524331393637557067726164653a20756e737570706f727465642070726f786044820152681a58589b195555525160ba1b60648201526084016106af565b506107e6838383611c6e565b60006117ad82610c7a565b90506117ba60008361138a565b600060678361039681106117d0576117d061269a565b0180546001600160a01b0319166001600160a01b039283161790556040518391600091908416907fddf252ad1be2c89b69c2b068fc378daa952ba7f163c4a11628f55a4df523b3ef908390a45050565b610459546001600160a01b03163314610dc35760405162461bcd60e51b815260206004820181905260248201527f4f776e61626c653a2063616c6c6572206973206e6f7420746865206f776e657260448201526064016106af565b606061048b80546105b69061265f565b61045980546001600160a01b038381166001600160a01b0319831681179093556040519116919082907f8be0079c531659141344cd1fd0a4f28419497f9722a3daafe3b4186f6b6457e090600090a35050565b600054610100900460ff166119055760405162461bcd60e51b81526004016106af90612892565b610b378282611c93565b600054610100900460ff16610dc35760405162461bcd60e51b81526004016106af90612892565b600054610100900460ff1661195d5760405162461bcd60e51b81526004016106af90612892565b610dc3611ce1565b600054610100900460ff1661198c5760405162461bcd60e51b81526004016106af90612892565b61048c55565b6001600160a01b0382163314156119eb5760405162461bcd60e51b815260206004820152601960248201527f4552433732313a20617070726f766520746f2063616c6c65720000000000000060448201526064016106af565b3360008181526103fe602090815260408083206001600160a01b03871680855290835292819020805460ff191686151590811790915590519081529192917f17307eab39ab6107e8899845ad3d59bd9653f200f220920489ca2b5937696c31910160405180910390a35050565b611a638484846114e3565b611a6f84848484611d11565b6106825760405162461bcd60e51b81526004016106af906128dd565b600082611a988584611e0c565b14949350505050565b606081611ac55750506040805180820190915260018152600360fc1b602082015290565b8160005b8115611aef5780611ad981612945565b9150611ae89050600a83612976565b9150611ac9565b60008167ffffffffffffffff811115611b0a57611b0a612425565b6040519080825280601f01601f191660200182016040528015611b34576020820181803683370190505b5090505b841561105357611b4960018361298a565b9150611b56600a866129a1565b611b619060306129b5565b60f81b818381518110611b7657611b7661269a565b60200101906001600160f81b031916908160001a905350611b98600a86612976565b9450611b38565b611ba98383611e59565b611bb66000848484611d11565b6107e65760405162461bcd60e51b81526004016106af906128dd565b6001600160a01b0381163b611c3f5760405162461bcd60e51b815260206004820152602d60248201527f455243313936373a206e657720696d706c656d656e746174696f6e206973206e60448201526c1bdd08184818dbdb9d1c9858dd609a1b60648201526084016106af565b600080516020612a3a83398151915280546001600160a01b0319166001600160a01b0392909216919091179055565b611c7783611f69565b600082511180611c845750805b156107e6576106828383611fa9565b600054610100900460ff16611cba5760405162461bcd60e51b81526004016106af90612892565b8151611ccd906065906020850190612190565b5080516107e6906066906020840190612190565b600054610100900460ff16611d085760405162461bcd60e51b81526004016106af90612892565b610dc33361188b565b60006001600160a01b0384163b15611e0457604051630a85bd0160e11b81526001600160a01b0385169063150b7a0290611d559033908990889088906004016129cd565b6020604051808303816000875af1925050508015611d90575060408051601f3d908101601f19168201909252611d8d91810190612a00565b60015b611dea573d808015611dbe576040519150601f19603f3d011682016040523d82523d6000602084013e611dc3565b606091505b508051611de25760405162461bcd60e51b81526004016106af906128dd565b805181602001fd5b6001600160e01b031916630a85bd0160e11b149050611053565b506001611053565b600081815b8451811015611e5157611e3d82868381518110611e3057611e3061269a565b6020026020010151611fce565b915080611e4981612945565b915050611e11565b509392505050565b6001600160a01b038216611eaf5760405162461bcd60e51b815260206004820181905260248201527f4552433732313a206d696e7420746f20746865207a65726f206164647265737360448201526064016106af565b611eb881611353565b15611f055760405162461bcd60e51b815260206004820152601c60248201527f4552433732313a20746f6b656e20616c7265616479206d696e7465640000000060448201526064016106af565b816067826103968110611f1a57611f1a61269a565b0180546001600160a01b0319166001600160a01b0392831617905560405182918416906000907fddf252ad1be2c89b69c2b068fc378daa952ba7f163c4a11628f55a4df523b3ef908290a45050565b611f7281611bd2565b6040516001600160a01b038216907fbc7cd75a20ee27fd9adebab32041f755214dbc6bffa90cc0225b39da2e5c2d3b90600090a250565b60606110d78383604051806060016040528060278152602001612a5a60279139611ffd565b6000818310611fea5760008281526020849052604090206110d7565b60008381526020839052604090206110d7565b6060600080856001600160a01b03168560405161201a9190612a1d565b600060405180830381855af49150503d8060008114612055576040519150601f19603f3d011682016040523d82523d6000602084013e61205a565b606091505b509150915061206b86838387612075565b9695505050505050565b606083156120e15782516120da576001600160a01b0385163b6120da5760405162461bcd60e51b815260206004820152601d60248201527f416464726573733a2063616c6c20746f206e6f6e2d636f6e747261637400000060448201526064016106af565b5081611053565b61105383838151156120f65781518083602001fd5b8060405162461bcd60e51b81526004016106af91906122a4565b82805461211c9061265f565b90600052602060002090601f01602090048101928261213e5760008555612184565b82601f106121575782800160ff19823516178555612184565b82800160010185558215612184579182015b82811115612184578235825591602001919060010190612169565b50610bae929150612204565b82805461219c9061265f565b90600052602060002090601f0160209004810192826121be5760008555612184565b82601f106121d757805160ff1916838001178555612184565b82800160010185558215612184579182015b828111156121845782518255916020019190600101906121e9565b5b80821115610bae5760008155600101612205565b6001600160e01b031981168114610a1e57600080fd5b60006020828403121561224157600080fd5b81356110d781612219565b60005b8381101561226757818101518382015260200161224f565b838111156106825750506000910152565b6000815180845261229081602086016020860161224c565b601f01601f19169290920160200192915050565b6020815260006110d76020830184612278565b60008083601f8401126122c957600080fd5b50813567ffffffffffffffff8111156122e157600080fd5b6020830191508360208260051b85010111156122fc57600080fd5b9250929050565b6000806000806040858703121561231957600080fd5b843567ffffffffffffffff8082111561233157600080fd5b61233d888389016122b7565b9096509450602087013591508082111561235657600080fd5b50612363878288016122b7565b95989497509550505050565b60006020828403121561238157600080fd5b5035919050565b80356001600160a01b038116811461239f57600080fd5b919050565b600080604083850312156123b757600080fd5b6123c083612388565b946020939093013593505050565b6000806000606084860312156123e357600080fd5b6123ec84612388565b92506123fa60208501612388565b9150604084013590509250925092565b60006020828403121561241c57600080fd5b6110d782612388565b634e487b7160e01b600052604160045260246000fd5b600082601f83011261244c57600080fd5b813567ffffffffffffffff8082111561246757612467612425565b604051601f8301601f19908116603f0116810190828211818310171561248f5761248f612425565b816040528381528660208588010111156124a857600080fd5b836020870160208301376000602085830101528094505050505092915050565b600080604083850312156124db57600080fd5b6124e483612388565b9150602083013567ffffffffffffffff81111561250057600080fd5b61250c8582860161243b565b9150509250929050565b6000806020838503121561252957600080fd5b823567ffffffffffffffff8082111561254157600080fd5b818501915085601f83011261255557600080fd5b81358181111561256457600080fd5b86602082850101111561257657600080fd5b60209290920196919550909350505050565b6000806040838503121561259b57600080fd5b6125a483612388565b9150602083013580151581146125b957600080fd5b809150509250929050565b600080600080608085870312156125da57600080fd5b6125e385612388565b93506125f160208601612388565b925060408501359150606085013567ffffffffffffffff81111561261457600080fd5b6126208782880161243b565b91505092959194509250565b6000806040838503121561263f57600080fd5b61264883612388565b915061265660208401612388565b90509250929050565b600181811c9082168061267357607f821691505b6020821081141561269457634e487b7160e01b600052602260045260246000fd5b50919050565b634e487b7160e01b600052603260045260246000fd5b6020808252602c908201527f4552433732313a20617070726f76656420717565727920666f72206e6f6e657860408201526b34b9ba32b73a103a37b5b2b760a11b606082015260800190565b6020808252602e908201527f4552433732313a2063616c6c6572206973206e6f7420746f6b656e206f776e6560408201526d1c881b9bdc88185c1c1c9bdd995960921b606082015260800190565b6020808252602c908201527f46756e6374696f6e206d7573742062652063616c6c6564207468726f7567682060408201526b19195b1959d85d1958d85b1b60a21b606082015260800190565b6020808252602c908201527f46756e6374696f6e206d7573742062652063616c6c6564207468726f7567682060408201526b6163746976652070726f787960a01b606082015260800190565b60006001600160fb1b038311156127f857600080fd5b8260051b8083863760009401938452509192915050565b6bffffffffffffffffffffffff198460601b16815260006128346014830184866127e2565b95945050505050565b6000835161284f81846020880161224c565b83519083019061286381836020880161224c565b01949350505050565b60006110538284866127e2565b60006020828403121561288b57600080fd5b5051919050565b6020808252602b908201527f496e697469616c697a61626c653a20636f6e7472616374206973206e6f74206960408201526a6e697469616c697a696e6760a81b606082015260800190565b60208082526032908201527f4552433732313a207472616e7366657220746f206e6f6e20455243373231526560408201527131b2b4bb32b91034b6b83632b6b2b73a32b960711b606082015260800190565b634e487b7160e01b600052601160045260246000fd5b60006000198214156129595761295961292f565b5060010190565b634e487b7160e01b600052601260045260246000fd5b60008261298557612985612960565b500490565b60008282101561299c5761299c61292f565b500390565b6000826129b0576129b0612960565b500690565b600082198211156129c8576129c861292f565b500190565b6001600160a01b038581168252841660208201526040810183905260806060820181905260009061206b90830184612278565b600060208284031215612a1257600080fd5b81516110d781612219565b60008251612a2f81846020870161224c565b919091019291505056fe360894a13ba1a3210667c828492db98dca3e2076cc3735a920a3ca505d382bbc416464726573733a206c6f772d6c6576656c2064656c65676174652063616c6c206661696c6564a2646970667358221220a0ffed098998ee9dd52f70f0f8806b8df5d7588b384e2174e2bebd3dd8a82ff164736f6c634300080a0033",
    "linkReferences": {}
  },
  "methodIdentifiers": {
    "approve(address,uint256)": "095ea7b3",
    "balanceOf(address)": "70a08231",
    "baseURI()": "6c0360eb",
    "burn(uint256)": "42966c68",
    "checkValidity(uint256[],bytes32[])": "ba70153c",
    "exists(uint256)": "4f558e79",
    "getApproved(uint256)": "081812fc",
    "initialize()": "8129fc1c",
    "isApprovedForAll(address,address)": "e985e9c5",
    "mintAllBeaNFT(uint256[],bytes32[])": "073b0d36",
    "name()": "06fdde03",
    "owner()": "8da5cb5b",
    "ownerOf(uint256)": "6352211e",
    "proxiableUUID()": "52d1902d",
    "renounceOwnership()": "715018a6",
    "safeTransferFrom(address,address,uint256)": "42842e0e",
    "safeTransferFrom(address,address,uint256,bytes)": "b88d4fde",
    "setApprovalForAll(address,bool)": "a22cb465",
    "setBaseURI(string)": "55f804b3",
    "supportsInterface(bytes4)": "01ffc9a7",
    "symbol()": "95d89b41",
    "tokenByIndex(uint256)": "4f6ccce7",
    "tokenOfOwnerByIndex(address,uint256)": "2f745c59",
    "tokenURI(uint256)": "c87b56dd",
    "totalSupply()": "18160ddd",
    "transferFrom(address,address,uint256)": "23b872dd",
    "transferOwnership(address)": "f2fde38b",
    "upgradeTo(address)": "3659cfe6",
    "upgradeToAndCall(address,bytes)": "4f1ef286"
  },
  "id": 26
}