{
  "abi": [
    {
      "anonymous": false,
      "inputs": [
        {
          "indexed": false,
          "internalType": "uint8",
          "name": "version",
          "type": "uint8"
        }
      ],
      "name": "Initialized",
      "type": "event"
    },
    {
      "anonymous": false,
      "inputs": [
        {
          "indexed": false,
          "internalType": "address",
          "name": "operator",
          "type": "address"
        },
        {
          "indexed": false,
          "internalType": "address",
          "name": "from",
          "type": "address"
        },
        {
          "indexed": false,
          "internalType": "uint256",
          "name": "tokenId",
          "type": "uint256"
        },
        {
          "indexed": false,
          "internalType": "bytes",
          "name": "data",
          "type": "bytes"
        },
        {
          "indexed": false,
          "internalType": "uint256",
          "name": "gas",
          "type": "uint256"
        }
      ],
      "name": "Received",
      "type": "event"
    },
    {
      "inputs": [
        {
          "internalType": "address",
          "name": "operator",
          "type": "address"
        },
        {
          "internalType": "address",
          "name": "from",
          "type": "address"
        },
        {
          "internalType": "uint256",
          "name": "tokenId",
          "type": "uint256"
        },
        {
          "internalType": "bytes",
          "name": "data",
          "type": "bytes"
        }
      ],
      "name": "onERC721Received",
      "outputs": [
        {
          "internalType": "bytes4",
          "name": "",
          "type": "bytes4"
        }
      ],
      "stateMutability": "nonpayable",
      "type": "function"
    }
  ],
  "bytecode": {
    "object": "0x608060405234801561001057600080fd5b50610384806100206000396000f3fe608060405234801561001057600080fd5b506004361061002b5760003560e01c8063150b7a0214610030575b600080fd5b61004361003e3660046101ba565b610060565b6040516001600160e01b0319909116815260200160405180910390f35b60006001600054600160301b900460ff16600381111561008257610082610296565b14156100d45760405162461bcd60e51b815260206004820152601d60248201527f45524337323152656365697665724d6f636b3a20726576657274696e67000000604482015260640160405180910390fd5b6002600054600160301b900460ff1660038111156100f4576100f4610296565b14156100ff57600080fd5b6003600054600160301b900460ff16600381111561011f5761011f610296565b141561013457600061013181806102ac565b50505b7f28fa6e16458f9c24aa59ddd4085264573006dbe30304837873c7deafc702b038858585855a60405161016b9594939291906102ce565b60405180910390a15060005462010000900460e01b949350505050565b80356001600160a01b038116811461019f57600080fd5b919050565b634e487b7160e01b600052604160045260246000fd5b600080600080608085870312156101d057600080fd5b6101d985610188565b93506101e760208601610188565b925060408501359150606085013567ffffffffffffffff8082111561020b57600080fd5b818701915087601f83011261021f57600080fd5b813581811115610231576102316101a4565b604051601f8201601f19908116603f01168101908382118183101715610259576102596101a4565b816040528281528a602084870101111561027257600080fd5b82602086016020830137600060208483010152809550505050505092959194509250565b634e487b7160e01b600052602160045260246000fd5b6000826102c957634e487b7160e01b600052601260045260246000fd5b500490565b600060018060a01b03808816835260208188168185015286604085015260a06060850152855191508160a085015260005b8281101561031b5786810182015185820160c0015281016102ff565b8281111561032d57600060c084870101525b5050608083019390935250601f91909101601f19160160c00194935050505056fea2646970667358221220f137837f6163be030754273486933248b45761515e4b13cb43a8eae3046e809f64736f6c634300080b0033",
    "linkReferences": {}
  },
  "methodIdentifiers": {
    "onERC721Received(address,address,uint256,bytes)": "150b7a02"
  },
  "id": 34
}