{
  "abi": [
    {
      "inputs": [],
      "name": "targetContracts",
      "outputs": [
        {
          "internalType": "address[]",
          "name": "",
          "type": "address[]"
        }
      ],
      "stateMutability": "view",
      "type": "function"
    }
  ],
  "bytecode": {
    "object": "0x608060405234801561001057600080fd5b5061017d806100206000396000f3fe608060405234801561001057600080fd5b506004361061002b5760003560e01c80633f7286f414610030575b600080fd5b61003861004e565b60405161004591906100fa565b60405180910390f35b60005460609061009a5760405162461bcd60e51b81526020600482015260136024820152724e4f5f5441524745545f434f4e54524143545360681b604482015260640160405180910390fd5b60008054806020026020016040519081016040528092919081815260200182805480156100f057602002820191906000526020600020905b81546001600160a01b031681526001909101906020018083116100d2575b5050505050905090565b6020808252825182820181905260009190848201906040850190845b8181101561013b5783516001600160a01b031683529284019291840191600101610116565b5090969550505050505056fea2646970667358221220de83afd1f2b12b484de95ee1487ae38c9fb7fdefde4b243fe675081253c0449a64736f6c634300080a0033",
    "linkReferences": {}
  },
  "methodIdentifiers": {
    "targetContracts()": "3f7286f4"
  },
  "id": 29
}